:0400000080311E2805
:1000080080312100901E0E282000901E0E28843179
:10001800EF2409002100101E17282000101E1728A1
:100028008431D92409008B190B1C09008431B524AB
:100038000B10090080312028203084000030850012
:10004800383085310425803120002A28ED2280317E
:100058008B170B173C208031DD20803184208031C4
:10006800C730D8000000D80B3628003200003028EE
:10007800FA01F801F9017A08F500F601790876061F
:10008800031D482878087506031D5428033084008A
:1000980084308500003FF200013FF300023F5D28F5
:1000A8000030840084308500003FF200013FF300F7
:1000B800023FF4007C208031F80A0319F90A003065
:1000C8007902143003197802031C3F280330F70023
:1000D8000830F6007830F500F50B7028F60B70281C
:1000E800F70B70281530FA0A7A02031808003D2821
:1000F8007308DB2080317208DB2080317408DB282C
:10010800CF284008031D08008B13F501F6010030C5
:10011800DB2080310030DB2080310030DB20803173
:10012800F50A0319F60A003076021430031975022D
:10013800031C8B288B172000C001C00A08003D084B
:100148003A06031DAF283B083806031DAF283C08B4
:100158003906031908008B13F701F8012000380845
:10016800F2003908F3003A08F4007C208031F70ADD
:100178000319F80A00307802143003197702031CB7
:10018800B2288B1720003808BB003908BC003A0891
:10019800BD00C001080020004108840005300402A9
:1001A8000318080083310435C03E82000800F100BE
:1001B8009C2B200042080319080070228031FD00A2
:1001C80020003E088400053004020318A229833168
:1001D8000435D43E820008001030F001F101F2002D
:1001E8004830F3018622803153307D06031D0C29E7
:1001F80020005330BE01BE0A052902302000BE008F
:100208004730C8000A2903302000BE00BF0108009B
:1002180047307D060319012943307D060319072954
:100228000D307D06031908000A307D060319080001
:1002380004302000BE000800BF0A3F08483E860080
:1002480087017D0881000A307D06031D08003530CE
:10025800F0008430F1004830F200FA218031700853
:10026800710403195029EC298030F5008430A02945
:100278007130F5008430A0298D30F5008430A02934
:10028800AE30F5008430A029A630F5008430A029CE
:100298009E30F5008430A0292000410884000530F4
:1002A800040203184C2983310435CA3E8200EC2924
:1002B8002000C1019D2920004030C101C10AB900B8
:1002C800B8009C2902306B2903306B2904302000C8
:1002D800C1009D293F08483E860087017D088100AE
:1002E8000230BF0A3F06031D7E294830362280317E
:1002F800FA008F2904303F06031D87294A30362229
:100308008031FB008F2906303F06031D8F294C30B2
:1003180036228031FC000A307D06031D08000830B3
:100328003F06031DEC297B08B9007A08B8007C0851
:10033800BA009630F5008430F60098222000BE01FD
:100348000800BF0A3F08483E860087017D088100F3
:100358000A307D06031D08005130F0008430F1009A
:100368004830F200FA2180317008710403195C29C1
:100378000630F0008430F1004830F200FA21803174
:100388007008710403195F291630F0008430F100F9
:100398004830F200FA218031700871040319662987
:1003A8004330F0008430F1004830F200FA21803107
:1003B80070087104031968292630F0008430F100B0
:1003C8004830F200FA2180317008710403196A2953
:1003D8005E30F5008430A0290A307D06031D080030
:1003E8005E30BE01F5008430F600982A700884005B
:1003F800710885000008F30072088600870101086B
:10040800F500730803192E2A0230F0070318F10AC1
:1004180073087506031D2E2AFF3070078400FF300D
:10042800713D85000008F40072088600413FF50020
:100438007408031D272A7408F000F1017508F002FA
:10044800031CF1030800F20AF20A75087406031D7A
:100458001F2AFA297308F000F1017508F002031C3D
:10046800F1030800F300F20172087307F000860038
:100478003030870101027208031C552A7307F00007
:1004880086003A30010272080318552A7307F000F3
:10049800860072087307F100840085010008D03EC9
:1004A800602A7307F0008600870172087307F1005D
:1004B800840085010008C93E81000230F20A7202F8
:1004C800031C382A730A8600870173088400850193
:1004D800000EF0390107080042080319702A2100AC
:1004E800901220004408203E860087010108F00091
:1004F8001030C40A44020318C401C2032100901634
:1005080070080800F400F5000130F2020030F33BF7
:10051800720F912A730A031908007508860087016B
:1005280070088100F50A882AF9017508F000760834
:10053800F100D72280317908F700F80171087802B4
:10054800031DA82A70087702031808007608F80027
:100558007508F70079087707840078080318780A7F
:1005680085000008BA228031F90A992AF000200093
:1005780045080319BB2A2100101AC62A700823004F
:100588009A00D42A101220004608303E86008701BF
:10059800700881000830C60A46020318C601C50360
:1005A8002100101608007008F3007108F4007308A1
:1005B80084007408850012000319E62AF30A031957
:1005C800F40ADB2A70087302F0007108743BF1002A
:1005D8000800342380313C2380311C2380318A2356
:1005E800803190238031FE22803107238031A5237A
:1005F8008031B32B013021009D00A0309E009F0167
:100608009B019C01080002303E00AF002130B00081
:100618000530B1002830B2002730B3000230B400F2
:10062800A430B500B6019030B7008530AE000800A0
:10063800210090121012483023009F0090309D0036
:1006480026309E0044309B009C0120000830C601E3
:10065800C701C500C301C401C201210090160800EA
:100668007030210099009A0198011A1B0800392B53
:1006780022008C011F3021008C00133023008C00D5
:10068800203022008D00C03021008D0023008D0114
:1006980024008D0122008E01FD3021008E002300F0
:1006A8008E0124008E012100951727001417941736
:1006B800971517169716171797178B1500308B1B5A
:1006C8000130F0008B1355303C008F00AA308F00AA
:1006D8000F100230A40007303D00950011309C0037
:1006E8001230A00011303C00A00010303D00A100E5
:1006F80012303C00A10055308F00AA308F000F1433
:10070800701C882B8B1708008B1308002400940199
:10071800233095009201080020009C0101309E00C2
:1007280020309D009F0113309B009A019010BE2B32
:10073800F0002400951370089100141CA12B1108D7
:1007480008009B010E309C009D019E019F01023014
:10075800A000A101A201A30180309A000800803006
:100768002C0099000530980040309700CF302500C4
:100778009E0508009C170800803185288031A32831
:100788008031CD288031CD288031CD28813138295C
:1007980081313C29813140298131442981314829DD
:1007A8008031F0288131A5298131202981316E29B4
:0407B8008131F02972
:10080000003400340034FF34FF34FF345334653493
:1008100074344C34453444342034443449345234F0
:100820004534433454340D340A340034533465347D
:1008300074344C34453444342034533454344134C7
:100840005234523459340D340A340034533465343C
:1008500074344C34453444342034503441345234AC
:10086000543459340D340A34003447346534743404
:100870004C34453444345334743461347434653402
:100880000D340A3400345334653474344C344534F4
:100890004434203458344D34413453340D340A3404
:1008A00000345334653474344C3445344434203487
:1008B0004F34663466340D340A34003449346E34AF
:1008C000763461346C3469346434203443346F34A6
:1008D0006D346D3461346E34643420340D340A3434
:1008E00000344434693472346534633474342034ED
:1008F00063346F346C346F3472340D340A34003422
:100900004C344534443420346934733420344F3407
:10091000463446340D340A3400345334743461346C
:100920007234723479340D340A34003444344F3420
:100930004E34453421340D340A34003445345234B5
:1009400052344F3452340D340A340034503461344C
:100950007234743479340D340A34003458346D34BC
:10096000613473340D340A3400342700141B161F0D
:10097000BB2C16130800941B961FC02C961308005E
:100980009719991DC52C99110800171A191ECA2C00
:1009900019120800971A991ECF2C99120800171BDC
:1009A000191FD42C19130800971B991F08009913BD
:1009B0000800083045020318EC2C4708303E86003A
:1009C0008701010823009A0020000830C70A470267
:1009D0000318C701C50A08002100101208002300EF
:1009E0009D1CF42C1D121D1620004308203E86007D
:1009F000870123001908810020001030C30A430238
:100A00000318C301C20A0800640080010131890B88
:040A1000052D00347C
:020000040001F9
:06000E00FC3FFF1F9F3FB5
:00000001FF
