:0400000080311E2805
:1000080080312100901E0E282000901E0E28843179
:10001800EF2409002100101E17282000101E1728A1
:100028008431D92409008B190B1C09008431B524AB
:100038000B10090080312028203084000030850012
:10004800383085310425803120002A282423803146
:100058008B170B1741208031142180319520803176
:100068000530DA000F30D900F430D800D80B3A2820
:10007800D90B3A28DA0B3A283028F501F601760828
:100088007506031D79280430840084308500000833
:10009800F10071080B218031033084008430850021
:1000A8000008F10071080B2180310530840084308C
:1000B80085000008F10071080B2180310630F60A2E
:1000C8007602031C43280330F4000830F30078302C
:1000D800F200F20B6D28F30B6D28F40B6D28063037
:1000E800F50A75020318080042280130840084309C
:1000F80085000008F10071080B2180310030840070
:10010800843085000008F10071080B21803102302D
:100118008400843085000008F10071080B218031CB
:100128006228FF284008031D08008B13F501F6011B
:100138000030840084308500003FF200013FF30066
:10014800023FF4007308F10071080B218031720836
:10015800F10071080B2180317408F10071080B213E
:100168008031B628F50A0319F60A003076020630FF
:1001780003197502031C9C288B172000C001C00AB4
:1001880008003D083A06031DD1283B083806031D20
:10019800D1283C083906031908008B13F701F80128
:1001A80020003808F2003908F3003A08F400730810
:1001B800F10071080B2180317208F10071080B21E0
:1001C80080317408F10071080B218031EB28F70A9F
:1001D8000319F80A00307802063003197702031C65
:1001E800D4288B1720003808BB003908BC003A080F
:1001F800BD00C00108002000410884000530040249
:100208000318080083310435DD3E82000800F00041
:100218002400951370089100141C10291108080077
:100228002000420803190800A7228031FD002000A1
:100238003E088400053004020318D92983310435A7
:10024800F13E820008001030F001F101F200483060
:10025800F301BD22803153307D06031D4329200060
:100268005330BE01BE0A3C2902302000BE00473090
:10027800C800412903302000BE00BF0108004730F4
:100288007D060319382943307D0603193E290D30B0
:100298007D06031908000A307D060319080004309A
:1002A8002000BE000800BF0A3F08483E86008701BC
:1002B8007D0881000A307D06031D08003530F000F6
:1002C8008430F1004830F200312280317008710426
:1002D80003198729232A8030F5008430D729713003
:1002E800F5008430D7298D30F5008430D729AE3019
:1002F800F5008430D729A630F5008430D7299E3000
:10030800F5008430D7292000410884000530040214
:100318000318832983310435E73E8200232A20000D
:10032800C101D42920004030C101C10AB900B80078
:10033800D3290230A2290330A22904302000C100A9
:10034800D4293F08483E860087017D088100023095
:10035800BF0A3F06031DB52948306D228031FA00D7
:10036800C62904303F06031DBE294A306D2280315C
:10037800FB00C62906303F06031DC6294C306D22F6
:100388008031FC000A307D06031D080008303F0656
:10039800031D232A7B08B9007A08B8007C08BA0034
:1003A8009630F5008430F600CF222000BE01080008
:1003B800BF0A3F08483E860087017D0881000A3051
:1003C8007D06031D08005130F0008430F1004830EC
:1003D800F200312280317008710403199329063024
:1003E800F0008430F1004830F2003122803170088A
:1003F8007104031996291630F0008430F100483052
:10040800F200312280317008710403199D294330AC
:10041800F0008430F1004830F20031228031700859
:10042800710403199F292630F0008430F100483008
:10043800F20031228031700871040319A1295E305D
:10044800F5008430D7290A307D06031D08005E3088
:10045800BE01F5008430F600CF2A700884007108C8
:1004680085000008F3007208860087010108F5007E
:1004780073080319652A0230F0070318F10A730894
:100488007506031D652AFF3070078400FF30713D33
:1004980085000008F40072088600413FF5007408E2
:1004A800031D5E2A7408F000F1017508F002031CB0
:1004B800F1030800F20AF20A75087406031D562AA9
:1004C800312A7308F000F1017508F002031CF103EA
:1004D8000800F300F20172087307F000860030305C
:1004E800870101027208031C8C2A7307F00086003A
:1004F8003A300102720803188C2A7307F00086004C
:1005080072087307F100840085010008D03E972A1D
:100518007307F0008600870172087307F1008400F2
:1005280085010008C93E81000230F20A7202031CEC
:100538006F2A730A86008701730884008501000EFC
:10054800F0390107080042080319A72A2100901270
:1005580020004408203E860087010108F000103082
:10056800C40A44020318C401C2032100901670088B
:100578000800F400F5000130F2020030F33B720F7E
:10058800C82A730A031908007508860087017008CD
:100598008100F50ABF2AF9017508F0007608F10014
:1005A8000E2380317908F700F80171087802031DDD
:1005B800DF2A70087702031808007608F800750823
:1005C800F70079087707840078080318780A850007
:1005D8000008F1228031F90AD02AF00020004508ED
:1005E8000319F22A2100101AFD2A700823009A0024
:1005F8000B2B101220004608303E86008701700839
:1006080081000830C60A46020318C601C503210046
:10061800101608007008F3007108F40073088400CD
:1006280074088500120003191D2BF30A0319F40A34
:10063800122B70087302F0007108743BF100080077
:10064800542380315C2380313C238031AA238031BC
:10065800B023803133238031BB238031D02B01304C
:1006680021009D00A0309E009F019B019C01080075
:10067800210090121012483023009F0090309D00F6
:1006880026309E0044309B009C0120000830C601A3
:10069800C701C500C301C401C201210090160800AA
:1006A8007030210099009A0198011A1B0800592BF3
:1006B80022008C011F3021008C00033023008C00A5
:1006C800203022008D00C03021008D0023008D01D4
:1006D80024008D0122008E01FD3021008E002300B0
:1006E8008E0124008E0121009517270014179417F6
:1006F800971517169716171797178B1500308B1B1A
:100708000130F0008B1355303C008F00AA308F0069
:100718000F100230A40007303D00950011309C00F6
:100728001230A00011303C00A00010303D00A100A4
:1007380012303C00A10055308F00AA308F000F14F2
:10074800701CA82B8B1708008B1308002400940139
:10075800333095009201080020009C019E01A030D2
:100768009D009F0104309B009A019010DB2B0A30FA
:100778003E00AF002130B0000E30B1002830B2008A
:100788002730B3000230B400A430B500B601903071
:10079800B7008530AE00080080302C009900023088
:1007A800980040309700CF3025009E0508009C1720
:1007B8000800803196288031C5288031FD28803195
:1007C800FD288031FD2881316F29813173298131DC
:1007D800772981317B2981317F298131272981310D
:0E07E800DC29813157298131A5298231272A48
:100800000034003400341434143414345334653454
:1008100074344C34453444342034443449345234F0
:100820004534433454340D340A340034533465347D
:1008300074344C34453444342034533454344134C7
:100840005234523459340D340A340034533465343C
:1008500074344C34453444342034503441345234AC
:10086000543459340D340A34003447346534743404
:100870004C34453444345334743461347434653402
:100880000D340A3400345334653474344C344534F4
:100890004434203458344D34413453340D340A3404
:1008A00000345334653474344C3445344434203487
:1008B0004F34663466340D340A34003449346E34AF
:1008C000763461346C3469346434203443346F34A6
:1008D0006D346D3461346E34643420340D340A3434
:1008E00000344434693472346534633474342034ED
:1008F00063346F346C346F3472340D340A34003422
:100900004C344534443420346934733420344F3407
:10091000463446340D340A3400345334743461346C
:100920007234723479340D340A34003444344F3420
:100930004E34453421340D340A34003445345234B5
:1009400052344F3452340D340A340034503461344C
:100950007234743479340D340A34003458346D34BC
:10096000613473340D340A3400342700141B161F0D
:10097000BB2C16130800941B961FC02C961308005E
:100980009719991DC52C99110800171A191ECA2C00
:1009900019120800971A991ECF2C99120800171BDC
:1009A000191FD42C19130800971B991F08009913BD
:1009B0000800083045020318EC2C4708303E86003A
:1009C0008701010823009A0020000830C70A470267
:1009D0000318C701C50A08002100101208002300EF
:1009E0009D1CF42C1D121D1620004308203E86007D
:1009F000870123001908810020001030C30A430238
:100A00000318C301C20A0800640080010131890B88
:040A1000052D00347C
:020000040001F9
:06000E00FC3FFF3F9F3F95
:00000001FF
