:020000002728AF
:100008007E1480312100911E0E282000911E0E289A
:10001800EE2325282100111E16282000111E16285F
:10002800C32325282100921E1E282000921E1E2868
:100038007C2425282100111C25282000111C252896
:1000480003247E1009002828FB01FC01FD01203053
:10005800840000308500393069247E102000492C46
:100068007C0803190800AD23F90062232000430827
:100078008400043004020318B728813114300407BF
:10008800820008001030F001F101F2004930F3015C
:1000980016247908533A031D5D2820005330C30104
:1000A800C30A5A2802302000C3004730C900C401DF
:1000B80008007908473A0319562879080D3A0319B0
:1000C800080079080A3A0319080003302000C30021
:1000D8000800C40A4408493E86008701790881005F
:1000E80079080A3A031D08001F30F0008230F10039
:1000F8004930F20006237108700403199C28FC2873
:100108007330F4008230B5286430F4008230B528AA
:100118008030F4008230B528A130F4008230B52850
:100128009930F4008230B5289130F4008230B52837
:100138007B088400053004020318982881310A30AE
:1001480004078200FC28FB01B228FB01FB0AB22845
:100158000230B1280330B1280430FB008930F400A4
:100168008230F50042232000C3010800C40A440875
:10017800493E860087017908810079080A3A031DFB
:1001880008003B30F0008230F1004930F2000623CD
:10019800710870040319A7284830F0008230F10074
:1001A8004930F2000623710870040319A9280030A9
:1001B800F0008230F1004930F20006237108700423
:1001C8000319AC282D30F0008230F1004930F200DC
:1001D8000623710870040319AE281030F00082302D
:1001E800F1004930F2000623710870040319B028A1
:1001F8005130F4008230B52879080A3A031D080006
:100208005130C301F4008230F500422B842888283D
:100218008C2890289428A92AC52AF82AF82AF82A86
:080228004628BA286D280029C0
:100400005334653474344C344534443420345334D8
:10041000543441345234523459340D340A34003493
:100420005334653474344C344534443420345034BB
:1004300041345234543459340D340A34003447347E
:10044000653474344C344534443453347434613436
:10045000743465340D340A340034533465347434E0
:100460004C3445344434203458344D3441345334BE
:100470000D340A3400345334653474344C34453408
:10048000443420344F34663466340D340A34003436
:100490005334653474345234473442340D340A349E
:1004A000003449346E34763461346C3469346434E5
:1004B000203443346F346D346D3461346E346434BD
:1004C00020340D340A3400344434693472346534D1
:1004D00063347434203463346F346C346F34723466
:1004E0000D340A3400344C344534443420346934F7
:1004F000733420344F34463446340D340A340034D7
:100500005334743461347234723479340D340A34AF
:10051000003444344F344E34453421340D340A34DD
:1005200000344534523452344F3452340D340A348A
:100530000034503461347234743479340D340A34F4
:10054000003458346D34613473340D340A3400345B
:10055000FB2A2000C208031D08008B13F201F301DF
:100560000030D9230030D9230030D923F20A0319EF
:10057000F30A00307302143003197202031CB02A0C
:100580008B172000C201C20A0800200038083B0671
:10059000031DD22A39083C06031DD22A3A083D061B
:1005A000031908008B13F401F5010030D923200052
:1005B0003908D92320003A08D923F40A0319F50A87
:1005C00000307502143003197402031CD52A8B17EE
:1005D000F60176083B3E860087017608383E8400A7
:1005E0008501000881000330F60A7602031CE92A1F
:1005F0002000C20108007B088400053004020318B3
:1006000008000F3081310407820008007008840060
:10061000710885000008F300720886008701010850
:10062000F500F30803193A2B0230F0070318F10A1A
:1006300073087506031D3A2BFF3070078400FF30E6
:10064000713D85000008F40072088600413FF50006
:10065000F408031D332B7408F000F1017508F00253
:10066000031CF1030800F20AF20A75087406031D60
:100670002B2B062B7308F000F1017508F002031C08
:10068000F1030800F8017508F1007408F0009623E2
:100690007808F600F70171087702031D512B7008E6
:1006A0007602031808007508F7007408F600780849
:1006B0007607840077080318770A8500000862230C
:1006C000F80A432BF0007D080319632B2100111A4F
:1006D0006D2B700823009A007B2B11122000470815
:1006E000303E86008701700881000830C70A470243
:1006F0000318C701FD032100111608002100911203
:100700001112483023009F0090309D0026309E003B
:1007100044309B009C0120000830C701C801FD0047
:10072000C501C601FC012100911608007108F30003
:100730007008F20072088400730885000008003811
:100740000319A62BF20A0319F30A9A2B70087202F6
:10075000F0007108733BF10008007C080319AD2B11
:100760002100911220004608203E860087010108E2
:10077000F0001030C60A46020318C601FC0321002F
:1007800091167008080008307D020318D62B48081F
:10079000303E86008701010823009A0020000830BF
:1007A000C80A48020318C801FD0A080021001112F6
:1007B0000800F000F101F01FE22B22000C150000F0
:1007C0000000E52B22000C15000022000C1108305F
:1007D000F035F10A710203180800DB2B23009D1C81
:1007E000F32B1D121D1620004508203E86008701B0
:1007F00023001908810020001030C50A45020318A3
:10080000C501FC0A08001110410897004008960035
:10081000BE0A0319BF0A00303F02103003193E021E
:10082000031C08007E24BE01BF010800F400F5008F
:100830000130F2020030F33B720A0319730A031904
:10084000080075088600870170088100F50A182CD9
:1008500034302000980099010B309700DC3096006E
:100860001708C100C0011608C0041110210011149E
:10087000792C043022008C003B3021008C00103099
:1008800023008C0024008C012100951722009D017B
:1008900008006F248B170B173420A822C730FA00EA
:1008A0000000FA0B502C003200004C2C92128430C5
:1008B0002200910021309200200092122100921615
:1008C00008007030210099009A0198011A1B080055
:1008D000662C640080010131890B6A2C003461248C
:1008E00039247E2356247524282C88302200970032
:0E08F0000800200018140800921208000800EA
:020000040001F9
:04000E00A4FFFFDF6D
:00000001FF
