:0400000080311E2805
:1000080080312100901E0E282000901E0E28843179
:10001800E92409002100101E17282000101E1728A7
:100028008431D32409008B190B1C09008431AF24B7
:100038000B10090080312028203084000030850012
:1000480038308431FE24803120002A28EC22803187
:100058008B170B173C208031DC20803177208031D2
:10006800C730D8000000D80B3628003200003028EE
:10007800F501F301F4017508F000F1017408710647
:10008800031D482873087006031D5228FF30DB2023
:100098008031FF30DB208031FF3059280030DB20F1
:1000A80080310030DB2080310030DB208031F30AE2
:1000B8000319F40A00307402143003197302031C84
:1000C8003F280330F2000830F1007830F000F00BE0
:1000D8006B28F10B6B28F20B6B281530F50A7502AB
:1000E800031808003D28CF284008031D08008B137B
:1000F800F001F1010030DB2080310030DB2080315D
:100108000030DB208031F00A0319F10A0030710257
:10011800143003197002031C7E288B172000C001BD
:10012800C00A080038083B06031DA22839083C0607
:10013800031DA2283A083D06031908008B13F20193
:10014800F30120003808DB20803120003908DB204B
:10015800803120003A08DB208031F20A0319F30AC3
:1001680000307302143003197202031CA5288B1780
:10017800F40174083B3E860087017408383E840009
:100188008501000881000330F40A7402031CBD28AD
:100198002000C00108002000410884000530040246
:1001A8000318080083310435B63E820008000800B1
:1001B80020004208031908006F228031FD0020004A
:1001C8003E088400053004020318A1298331043550
:1001D800CA3E820008001030F001F101F2004830F8
:1001E800F3018522803153307D06031D0B29200041
:1001F8005330BE01BE0A042902302000BE00473039
:10020800C800092903302000BE00BF01080047309C
:100218007D060319002943307D06031906290D3090
:100228007D06031908000A307D060319080004300A
:100238002000BE000800BF0A3F08483E860087012C
:100248007D0881000A307D06031D08002F30F0006C
:100258008430F1004830F200F921803170087104CF
:1002680003194F29EB297A30F50084309F296B3028
:10027800F50084309F298730F50084309F29A83005
:10028800F50084309F29A030F50084309F299830EC
:10029800F50084309F2920004108840005300402BD
:1002A80003184B2983310435C03E8200EB29200016
:1002B800C1019C2920004030C101C10AB800B90021
:1002C8009B2902306A2903306A2904302000C100C2
:1002D8009C293F08483E860087017D08810002303E
:1002E800BF0A3F06031D7D29483035228031FA00B8
:1002F8008E2904303F06031D86294A303522803175
:10030800FB008E2906303F06031D8E294C3035220E
:100318008031FC000A307D06031D080008303F06C6
:10032800031DEB297B08B8007A08B9007C08BA00DD
:100338009030F5008430F60097222000BE010800B6
:10034800BF0A3F08483E860087017D0881000A30C1
:100358007D06031D08004B30F0008430F100483062
:10036800F200F92180317008710403195B2900300B
:10037800F0008430F1004830F200F9218031700833
:10038800710403195E291030F0008430F100483000
:10039800F200F921803170087104031965293D3094
:1003A800F0008430F1004830F200F9218031700803
:1003B8007104031967292030F0008430F1004830B7
:1003C800F200F92180317008710403196929583045
:1003D800F50084309F290A307D06031D0800583037
:1003E800BE01F5008430F600972A70088400710871
:1003F80085000008F3007208860087010108F500EF
:10040800730803192D2A0230F0070318F10A73083C
:100418007506031D2D2AFF3070078400FF30713DDB
:1004280085000008F40072088600413FF500740852
:10043800031D262A7408F000F1017508F002031C58
:10044800F1030800F20AF20A75087406031D1E2A51
:10045800F9297308F000F1017508F002031CF10393
:100468000800F300F20172087307F00086003030CC
:10047800870101027208031C542A7307F0008600E2
:100488003A30010272080318542A7307F0008600F4
:1004980072087307F100840085010008D03E5F2AC6
:1004A8007307F0008600870172087307F100840063
:1004B80085010008C93E81000230F20A7202031C5D
:1004C800372A730A86008701730884008501000EA5
:1004D800F03901070800420803196F2A2100901219
:1004E80020004408203E860087010108F0001030F3
:1004F800C40A44020318C401C203210090167008FC
:100508000800F400F5000130F2020030F33B720FEE
:10051800902A730A03190800750886008701700875
:100528008100F50A872AF9017508F0007608F100BC
:10053800D62280317908F700F80171087802031D86
:10054800A72A70087702031808007608F8007508CB
:10055800F70079087707840078080318780A850077
:100568000008B9228031F90A982AF00020004508CD
:100578000319BA2A2100101AC52A700823009A0004
:10058800D32A101220004608303E860087017008E2
:1005980081000830C60A46020318C601C5032100B7
:1005A800101608007008F3007108F400730884003E
:1005B8007408850012000319E52AF30A0319F40ADE
:1005C800DA2A70087302F0007108743BF100080021
:1005D800332380313B2380311B23803189238031B1
:1005E8008F238031FD228031062380319B23803187
:1005F800A92B013021009D00A0309E009F019B0186
:100608009C01080002303E00AF002130B0000530E8
:10061800B1002830B2002730B3000230B400A43053
:10062800B500B6019030B7008530AE000800210053
:1006380090121012483023009F0090309D00263001
:100648009E0044309B009C0120000830C601C70171
:10065800C500C301C401C201210090160800703012
:10066800210099009A0198011A1B0800382B2200D2
:100678008C011F3021008C00133023008C002030A7
:1006880022008D00C03021008D0023008D01240040
:100698008D0122008E01FD3021008E0023008E0185
:1006A80024008E0121009517270014179417971519
:1006B80017169716171797178B1500308B1B0130D5
:1006C800F0008B1355303C008F00AA308F000F10BC
:1006D8000230A40007303D00950011309C00123014
:1006E800A00011303C00A00010303D00A1001230E5
:1006F8003C00A10055308F00AA308F000F14701CE9
:10070800872B8B1708008B130800240094012330D3
:1007180095009201080020009C0101309E002030C5
:100728009D009F0113309B009A019010B42B9B01F0
:100738000E309C009D019E019F010230A000A10186
:10074800A201A30180309A00080080302C00990093
:100758000530980040309700CF3025009E050800EE
:100768009C17080080317828803196288031CC2861
:100778008031CC288031CC288131372981313B29FF
:1007880081313F2981314329813147298031EF283F
:100798008131A42981311F2981316D298131EF29C6
:100800005334653474344C344534443420344434E3
:10081000493452344534433454340D340A340034AA
:100820005334653474344C344534443420345334B4
:10083000543441345234523459340D340A3400346F
:100840005334653474344C34453444342034503497
:1008500041345234543459340D340A34003447345A
:10086000653474344C344534443453347434613412
:10087000743465340D340A340034533465347434BC
:100880004C3445344434203458344D34413453349A
:100890000D340A3400345334653474344C344534E4
:1008A000443420344F34663466340D340A34003412
:1008B00049346E34763461346C34693464342034B1
:1008C00043346F346D346D3461346E3464342034A9
:1008D0000D340A340034443469347234653463347A
:1008E0007434203463346F346C346F3472340D34A8
:1008F0000A3400344C34453444342034693473347D
:1009000020344F34463446340D340A3400345334E2
:10091000743461347234723479340D340A340034EE
:1009200044344F344E34453421340D340A340034C9
:100930004534523452344F3452340D340A34003476
:10094000503461347234743479340D340A340034E0
:1009500058346D34613473340D340A340034270054
:10096000141B161FB52C16130800941B961FBA2CC7
:10097000961308009719991DBF2C99110800171A92
:10098000191EC42C19120800971A991EC92C991205
:100990000800171B191FCE2C19130800971B991F4D
:1009A000080099130800083045020318E62C470890
:1009B000303E86008701010823009A00200008309D
:1009C000C70A47020318C701C50A08002100101210
:1009D000080023009D1CEE2C1D121D16200043084C
:1009E000203E860087012300190881002000103076
:1009F000C30A43020318C301C20A0800640080014D
:080A00000131890BFF2C0034C9
:020000040001F9
:06000E00FC3FFF1F9F3FB5
:00000001FF
