:020000002728AF
:100008007E1480312100911E0E282000911E0E289A
:10001800662425282100111E16282000111E1628E6
:100028003B2425282100921E1E282000921E1E28EF
:10003800F52425282100111C25282000111C25281D
:100048007B247E1009002828203084000030850099
:100058003C30E2247E102000C12C20004608031901
:1000680008002524FC003E291030F001F101F200BF
:100078004C30F3018E247C08533A031D532820008A
:100088005330C201C20A4C2802302000C200473057
:10009800CC00512803302000C200C30108007C08AE
:1000A800473A031948287C08433A03194E287C0824
:1000B8000D3A031969287C080A3A031D65282000AF
:1000C800080004302000C200080020000800C30A0D
:1000D80043084C3E860087017C0881007C080A3A68
:1000E800031D08002F30F0008230F1004C30F20080
:1000F8000D237108700403199A282E297A30F40008
:100108008230E7286B30F4008230E7288730F4002B
:100118008230E728A830F4008230E728A030F400C5
:100128008230E7289830F4008230E728200045081C
:100138008400053004020318962881314F300407E3
:1001480082002E292000C501E42820004030C50186
:10015800C50AB800B900E3280230B5280330B5282D
:1001680004302000C500E42843084C3E860087017F
:100178007C088100C30A4308023A031DC7284C3093
:100188004923F900D6284308043A031DCF284E30E6
:100198004923FA00D6284308063A031DD6285030CA
:1001A8004923FB007C080A3A031D08004308083A63
:1001B800031D2E297A08B8007908B9007B08BA000F
:1001C8009030F4008230F500B9232000C201080005
:1001D800C30A43084C3E860087017C0881007C08DE
:1001E8000A3A031D08004B30F0008230F1004C3011
:1001F800F2000D23710870040319A6280030F000DE
:100208008230F1004C30F2000D237108700403199C
:10021800A9281030F0008230F1004C30F2000D2394
:10022800710870040319B0283D30F0008230F100E5
:100238004C30F2000D23710870040319B2282030E5
:10024800F0008230F1004C30F2000D237108700488
:100258000319B4285830F4008230E7287C080A3A99
:10026800031D08005830C201F4008230F500B9239C
:10027800200008002000420884000530040203180A
:10028800E92881315430040782000800B02ACB2ABB
:10029800FE2AFE2AFE2A822886288A288E28922864
:0A02A8003828EC286B28B82832290A
:100400005334653474344C344534443420344434E7
:10041000493452344534433454340D340A340034AE
:100420005334653474344C344534443420345334B8
:10043000543441345234523459340D340A34003473
:100440005334653474344C3445344434203450349B
:1004500041345234543459340D340A34003447345E
:10046000653474344C344534443453347434613416
:10047000743465340D340A340034533465347434C0
:100480004C3445344434203458344D34413453349E
:100490000D340A3400345334653474344C344534E8
:1004A000443420344F34663466340D340A34003416
:1004B00049346E34763461346C34693464342034B5
:1004C00043346F346D346D3461346E3464342034AD
:1004D0000D340A340034443469347234653463347E
:1004E0007434203463346F346C346F3472340D34AC
:1004F0000A3400344C344534443420346934733481
:1005000020344F34463446340D340A3400345334E6
:10051000743461347234723479340D340A340034F2
:1005200044344F344E34453421340D340A340034CD
:100530004534523452344F3452340D340A3400347A
:10054000503461347234743479340D340A340034E4
:1005500058346D34613473340D340A340034012B53
:10056000C408031D08008B13F201F301003051246D
:100570000030512400305124F20A0319F30A0030EC
:100580007302143003197202031CB62A8B17200061
:10059000C401C40A080038083B06031DD72A3908DD
:1005A0003C06031DD72A3A083D06031908008B13A1
:1005B000F401F501200038085124200039085124A5
:1005C00020003A085124F40A0319F50A0030750294
:1005D000143003197402031CDA2A8B17F60176080B
:1005E0003B3E860087017608383E8400850100087E
:1005F00081000330F60A7602031CEF2A2000C401B2
:100600000800200045088400053004020318080093
:100610004A308131040782000800700884007108A4
:1006200085000008F3007208860087010108F500C4
:10063000F3080319412B0230F0070318F10A73087D
:100640007506031D412BFF3070078400FF30713D9C
:1006500085000008F40072088600413FF500F408A8
:10066000031D3A2B7408F000F1017508F002031C19
:10067000F1030800F20AF20A75087406031D322B12
:100680000D2B7308F000F1017508F002031CF10353
:100690000800F300F20172087307F00086003030A2
:1006A000870101027208031C682B7307F0008600A3
:1006B0003A30010272080318682B7307F0008600B5
:1006C00072087307F100840085010008D03E732B87
:1006D0007307F0008600870172087307F100840039
:1006E00085010008C93E81000230F20A7202031C33
:1006F0004B2B730A86008701730884008501000E66
:10070000F03901070800F701F501F6017708F2005A
:10071000F30176087306031D8F2B75087206031DFF
:10072000972BFF305124FF305124FF309C2B003099
:1007300051240030512400305124F50A0319F60ADF
:1007400000307602143003197502031C862B033027
:10075000F4000830F3007830F200F20BAD2BF30B0D
:10076000AD2BF40BAD2B1530F70A770203180800F8
:10077000842BF8017508F1007408F0000E24780845
:10078000F600F70171087702031DC82B7008760286
:10079000031808007508F7007408F6007808760753
:1007A000840077080318770A85000008D923F80A1F
:1007B000BA2BF000200049080319DA2B2100111A86
:1007C000E52B700823009A00F32B111220004A0831
:1007D000303E86008701700881000830CA0A4A024C
:1007E0000318CA01C9032100111608002100911243
:1007F0001112483023009F0090309D0026309E004B
:1008000044309B009C0120000830CA01CB01C90084
:10081000C701C801C6012100911608007108F30044
:100820007008F20072088400730885000008003820
:1008300003191E2CF20A0319F30A122C7008720213
:10084000F0007108733BF100080046080319252CDD
:100850002100911220004808203E860087010108EF
:10086000F0001030C80A48020318C801C60321006E
:100870009116700808000830490203184E2C4B08E6
:10088000303E86008701010823009A0020000830CE
:10089000CB0A4B020318CB01C90A08002100111230
:1008A0000800F000F101F01F5A2C22000C15000086
:1008B00000005D2C22000C15000022000C110830F5
:1008C000F035F10A710203180800532C23009D1C17
:1008D0006B2C1D121D1620004708203E8600870144
:1008E00023001908810020001030C70A47020318AE
:1008F000C701C60A08001110410897004008960079
:10090000BE0A0319BF0A00303F02103003193E022D
:10091000031C0800F724BE01BF010800F400F50025
:100920000130F2020030F33B720A0319730A031913
:10093000080075088600870170088100F50A902C70
:1009400034302000980099010B309700DC3096007D
:100950001708C100C0011608C004111021001114AD
:10096000F22C043022008C003B3021008C0010302F
:1009700023008C0024008C012100951722009D018A
:100980000800E8248B170B1783233120AF22C730D0
:10099000FD000000FD0BC92C00320000C52C921296
:1009A0008430220091002130920020009212210018
:1009B000921608007030210099009A0198011A1BC4
:1009C0000800DF2C640080010131890BE32C003426
:1009D000DA24B124F623CF24EE24A02C8830220080
:1009E0009700080020001814080092120800080060
:020000040001F9
:04000E00A4FFFFDF6D
:00000001FF
