:0400000080311E2805
:1000080080312100901E0E282000901E0E28873176
:10001800A22709002100101E17282000101E1728EB
:1000280087318C2709008B190B1C09008731682739
:100038000B10090080312028203084000030850012
:1000480039308731B727803120002A2814218031A0
:100058008B170B1741208131CD21803195208031BC
:100068000530DE000F30DD00F430DC00DC0B3A2810
:10007800DD0B3A28DE0B3A282F28F501F601760821
:100088007506031D79280430840086308500000831
:10009800F10071080B21803103308400863085001F
:1000A8000008F10071080B2180310530840086308A
:1000B80085000008F10071080B2180310630F60A2E
:1000C8007602031C43280330F4000830F30078302C
:1000D800F200F20B6D28F30B6D28F40B6D28063037
:1000E800F50A75020318080042280130840086309A
:1000F80085000008F10071080B2180310030840070
:10010800863085000008F10071080B21803102302B
:100118008400863085000008F10071080B218031C9
:100128006228FF284008031D08008B13F501F6011B
:100138000030840086308500003FF200013FF30064
:10014800023FF4007308F10071080B218031720836
:10015800F10071080B2180317408F10071080B213E
:100168008031B628F50A0319F60A003076020630FF
:1001780003197502031C9C288B172000C001C00AB4
:1001880008003D083A06031DD1283B083806031D20
:10019800D1283C083906031908008B13F701F80128
:1001A80020003808F2003908F3003A08F400730810
:1001B800F10071080B2180317208F10071080B21E0
:1001C80080317408F10071080B218031EB28F70A9F
:1001D8000319F80A00307802063003197702031C65
:1001E800D4288B1720003808BB003908BC003A080F
:1001F800BD00C00108002000410884000530040249
:100208000318080085310435103E82000800F0000C
:100218002400951370089100141C10291108080077
:10022800442180314C2180312C2180319A21803128
:10023800A021803123218031AB218031C0290130B8
:1002480021009D00A0309E009F019B019C01080099
:10025800210090121012483023009F0090309D001A
:1002680026309E0044309B009C0120000830C601C7
:10027800C701C500C301C401C201210090160800CE
:100288007030210099009A0198011A1B0800492929
:1002980022008C011F3021008C00033023008C00C9
:1002A800203022008D00C03021008D0023008D01F8
:1002B80024008D0122008E01FD3021008E002300D4
:1002C8008E0124008E01210095172700141794171A
:1002D800971517169716171797178B1500308B1B3E
:1002E8000130F0008B1355303C008F00AA308F008E
:1002F8000F100230A40007303D00950011309C001B
:100308001230A00011303C00A00010303D00A100C8
:1003180012303C00A10055308F00AA308F000F1416
:10032800701C98298B1708008B130800240094016F
:10033800333095009201080020009C019E01A030F6
:100348009D009F0104309B009A019010CB290A3030
:100358003E00AF002130B0000E30B1002830B200AE
:100368002730B3000230B400A430B500B601903095
:10037800B7008530AE00080080302C0099000230AC
:10038800980040309700CF3025009E0508009C1744
:1003980008002000420803190800A7248131200022
:1003A800DB003E08003A0319E129013A0319072A3C
:1003B800033A0319872A7F2A08001030F001F10157
:1003C800F2004930F301E1248131533020005B060B
:1003D8000319F62947305B060319F62954305B06E2
:1003E800031DFC29BE01BE0A5B08C900BF01080045
:1003F8000D305B06031908000A305B060319080074
:100408000230BE000800BF0A3F08493E8600870147
:100418005B0881000A305B06031D822ADA01493035
:10042800F6000030F70020005A08F0000730F1010C
:10043800F200F3019122813171088500700884006F
:10044800063084078630853D003FF800013FF900FB
:1004580020005A08F0000730F101F200F301912260
:10046800813171088500700884000830840786305F
:10047800853D0008FA00FB016E248131F71B5C2AD8
:100488004930FD0020005A08F0000730F101F20061
:10049800F3019122710885007008840009308407EF
:1004A8008630853D013F8A00003F0A008231712A6B
:1004B8002000DA0A5A08F0000730F101F200F301CF
:1004C8009122813171088500700884000830840702
:1004D8008630853D1200031D132A0630F60086304B
:1004E800F700BD2481315A02031C7F2AFE30F20036
:1004F8008630F300D8232000BE0108000F303F02E9
:10050800031C0800042A0A305B06031D0800FE309D
:10051800BE01F2008630F300D82BF401F501701CFF
:10052800992A7208F4077308F53DF235F30DF13690
:10053800F00C70087104031D932A7508F100740803
:10054800F00008008530F0008630F1007D08F200E8
:100558009C23813170087104031DB42A803141281D
:100568007930F0008630F1007D08F2009C2381315B
:100578007008710403190800FE30F2008630F30099
:10058800D82B5030F0008630F1007D08F2009C2313
:100598008131700871040319F02AFB2A2030F20017
:1005A8008730F300D82B1130F2008730F300D82BB6
:1005B8002D30F2008730F300D82B4E30F200873010
:1005C800F300D82B4630F2008730F300D82B3E30AA
:1005D800F2008730F300D82B200041088400053052
:1005E80004020318EB2A853104351A3E8200FE30D6
:1005F800F2008630F300D82B6C30F0008630F10022
:100608007D08F2009C23813170087104031D132BAF
:1006180020003630C101F2008730F300D82B223099
:10062800F0008630F1007D08F2009C2381317008CB
:100638007104031D272B02302000C1003630F20060
:100648008730F300D82B5E30F0008630F1007D084B
:10065800F2009C23813170087104031D3B2B033089
:100668002000C1003630F2008730F300D82B41302B
:10067800F0008630F1007D08F2009C23813170087B
:100688007104031D4F2B04302000C1003630F200E6
:100698008730F300D82B3230F6008630F7007D081B
:1006A800F8003230F901F0008630F100562481312B
:1006B8007108FB007008FA006E248131760877040F
:1006C800031D972B3230F0008630F100562481311B
:1006D8007008FD077D08F000F101562481310830CB
:1006E80070067104031D922B7D08EA2381312000D6
:1006F800B8007D08023EEA2381312000B9007D0858
:10070800043EEA2381312000BA003630F2008730F7
:10071800F300D8232000C101C10A0800FE30F2000E
:100728008630F300D82BFE30F2008630F300D82B49
:1007380070088400710885000008F30072088600BC
:1007480087010108F50073080319D02B0230F00760
:100758000318F10A73087506031DD02BFF307007C4
:100768008400FF30713D85000008F400720886009F
:10077800413FF5007408031DC92B7408F000F1010E
:100788007508F002031CF1030800F20AF20A750862
:100798007406031DC12B9C2B7308F000F10175082A
:1007A800F002031CF10308007308F5007208F40056
:1007B800F20A0319F30A8400750885000008F60098
:1007C8007608031908006C248131D82BF300F20154
:1007D80072087307F0008600303087010102720842
:1007E800031C092C7307F00086003A3001027208D6
:1007F8000318092C7307F000860072087307F100CC
:10080800840085010008D03E402C7307F000860064
:100818004130870101027208031C252C7307F00080
:1008280086004730010272080318252C7307F00070
:10083800860072087307F100840085010008C93E2C
:10084800402C7307F00086006130870101027208AE
:10085800031C422C7307F0008600673001027208FF
:100868000318422C7307F000860072087307F10022
:10087800840085010008A93E8100472C7307F00019
:100888008600870181010230F20A7202031CEC2BF8
:10089800730A86008701730884008501000EF03909
:1008A800010708007008F3007108F4007308840059
:1008B8007408850012000319652CF30A0319F40A59
:1008C8005A2C70087302F0007108743BF10008009C
:1008D800F100F32C0130FA020030FB3B7A0F772C41
:1008E8007B0A0319A42C7608840077088500120077
:1008F80003198C2C78088400790885000008FC000E
:10090800760884007708850000087C0603199D2C6A
:1009180076088400770885000008FC0078088400C1
:100928007908850000087C02F600F701031CF7032C
:100938000800F60A0319F70AF80A0319F90A6E2CCF
:10094800F601F701080042080319A72C21009012AC
:1009580020004408203E860087010108F00010307E
:10096800C40A44020318C401C20321009016700887
:100978000800FB01200048080319C42CDF2CFB0ADF
:100988007B08F0000730F101F200F3019122813178
:1009980070087607F8007108773DF900023078078B
:1009A800840079080318790A85001200031DC32CF6
:1009B8007B082000C80048080800F400F500013052
:1009C800F2020030F33B720FEC2C730A0319080093
:1009D80075088600870170088100F50AE32CF0008D
:1009E800200045080319F42C2100101AFF2C700868
:1009F80023009A000D2D101220004608303E860074
:100A08008701700881000830C60A46020318C6012B
:100A1800C503210010160800803196288031C528AA
:100A28008031FD288031FD288031FD288231D22A8D
:100A38008231D72A8231DC2A8231E12A8231E62AC0
:100C00000034003400341434143414345C34873425
:100C10000634003403349034863455348734063433
:100C2000C5340234E0348634633487340434A63463
:100C30000234BE3486341034873400340034003437
:100C4000103487345334653474344C34453444346C
:100C500020345334543441345234523459340D34E2
:100C60000A3400345334653474344C3445344434D9
:100C700020344434493452344534433454342034D9
:100C800000345334653474344C34453444342034A3
:100C9000503441345234543459340D340A3400340D
:100CA0004734653474344C344534443453347434E8
:100CB0006134743465340D340A340034533465348B
:100CC00074344C3445344434203458344D34413435
:100CD00053340D340A3400345334653474344C3492
:100CE0004534443420344F34663466340D340A3489
:100CF000003454344534533454342034533452344F
:100D000041344D340D340A340034543445345334B2
:100D1000543420344C34453444340D340A340034D3
:100D200053346534743420344C34453444342034E2
:100D30004D346F34643465343A3420344F3466347F
:100D400066342C34443449345234453443345434B6
:100D50002C345334543441345234523459342C34B6
:100D600058344D34413453342C345034413452349B
:100D7000543459342E340D340A3400345334793415
:100D80007334743465346D342034733465346C34A6
:100D900066342D3474346534733474343A344C34DA
:100DA000453444342C3420345334523441344D349B
:100DB0002C34203441344C344C340D340A34003457
:100DC00047346534743420347434683465342034E2
:100DD000633475347234723465346E347434203450
:100DE0004C344534443420347334743461347434B2
:100DF000753473342E340D340A34003449346E346F
:100E0000763461346C3469346434203443346F3460
:100E10006D346D3461346E34643420340D340A34EE
:100E200000344434693472346534633474342034A7
:100E300063346F346C346F3472340D340A340034DC
:100E40004C344534443420346934733420344F34C2
:100E5000463446340D340A34003453347434613427
:100E60007234723479340D340A34003444344F34DB
:100E70004E34453421340D340A3400344534523470
:100E800052344F3452340D340A3400345034613407
:100E90007234743479340D340A34003458346D3477
:100EA000613473340D340A34003447346534743497
:100EB0004C344534443400345334653474344C3445
:100EC0004534443400345434653473347434003459
:100ED0002700141B161F6E2F16130800941B961F55
:100EE000732F961308009719991D782F99110800F0
:100EF000171A191E7D2F19120800971A991E822F92
:100F000099120800171B191F872F19130800971B28
:100F1000991F0800991308000830450203189F2FF5
:100F20004708303E86008701010823009A00200010
:100F30000830C70A47020318C701C50A0800210084
:100F40001012080023009D1CA72F1D121D16200043
:100F50004308203E860087012300190881002000F5
:100F60001030C30A43020318C301C20A0800640018
:0A0F700080010131890BB82F003415
:020000040001F9
:06000E00FC3FFF3F9F3F95
:00000001FF
